{"abi":[{"type":"constructor","inputs":[],"stateMutability":"nonpayable"},{"type":"function","name":"DOMAIN_SEPARATOR","inputs":[],"outputs":[{"name":"","type":"bytes32","internalType":"bytes32"}],"stateMutability":"view"},{"type":"function","name":"INTENT_TYPEHASH","inputs":[],"outputs":[{"name":"","type":"bytes32","internalType":"bytes32"}],"stateMutability":"view"},{"type":"function","name":"_messageHash","inputs":[{"name":"orderId","type":"bytes32","internalType":"bytes32"},{"name":"intent","type":"tuple","internalType":"struct IUntronIntents.Intent","components":[{"name":"refundBeneficiary","type":"address","internalType":"address"},{"name":"inputs","type":"tuple[]","internalType":"struct Input[]","components":[{"name":"token","type":"address","internalType":"address"},{"name":"amount","type":"uint256","internalType":"uint256"}]},{"name":"to","type":"bytes21","internalType":"bytes21"},{"name":"outputAmount","type":"uint256","internalType":"uint256"}]}],"outputs":[{"name":"","type":"bytes32","internalType":"bytes32"}],"stateMutability":"view"},{"type":"function","name":"_openFor","inputs":[{"name":"order","type":"tuple","internalType":"struct GaslessCrossChainOrder","components":[{"name":"originSettler","type":"address","internalType":"address"},{"name":"user","type":"address","internalType":"address"},{"name":"nonce","type":"uint256","internalType":"uint256"},{"name":"originChainId","type":"uint64","internalType":"uint64"},{"name":"openDeadline","type":"uint32","internalType":"uint32"},{"name":"fillDeadline","type":"uint32","internalType":"uint32"},{"name":"orderData","type":"bytes","internalType":"bytes"}]}],"outputs":[],"stateMutability":"nonpayable"},{"type":"function","name":"gaslessNonces","inputs":[{"name":"","type":"address","internalType":"address"}],"outputs":[{"name":"","type":"uint256","internalType":"uint256"}],"stateMutability":"view"},{"type":"function","name":"initialize","inputs":[{"name":"_permit2","type":"address","internalType":"address"}],"outputs":[],"stateMutability":"nonpayable"},{"type":"function","name":"open","inputs":[{"name":"order","type":"tuple","internalType":"struct OnchainCrossChainOrder","components":[{"name":"fillDeadline","type":"uint32","internalType":"uint32"},{"name":"orderData","type":"bytes","internalType":"bytes"}]}],"outputs":[],"stateMutability":"nonpayable"},{"type":"function","name":"openFor","inputs":[{"name":"order","type":"tuple","internalType":"struct GaslessCrossChainOrder","components":[{"name":"originSettler","type":"address","internalType":"address"},{"name":"user","type":"address","internalType":"address"},{"name":"nonce","type":"uint256","internalType":"uint256"},{"name":"originChainId","type":"uint64","internalType":"uint64"},{"name":"openDeadline","type":"uint32","internalType":"uint32"},{"name":"fillDeadline","type":"uint32","internalType":"uint32"},{"name":"orderData","type":"bytes","internalType":"bytes"}]},{"name":"signature","type":"bytes","internalType":"bytes"},{"name":"","type":"bytes","internalType":"bytes"}],"outputs":[],"stateMutability":"nonpayable"},{"type":"function","name":"orders","inputs":[{"name":"","type":"bytes32","internalType":"bytes32"}],"outputs":[{"name":"","type":"bool","internalType":"bool"}],"stateMutability":"view"},{"type":"function","name":"owner","inputs":[],"outputs":[{"name":"","type":"address","internalType":"address"}],"stateMutability":"view"},{"type":"function","name":"permit2","inputs":[],"outputs":[{"name":"","type":"address","internalType":"contract IPermit2"}],"stateMutability":"view"},{"type":"function","name":"permit2AndOpenFor","inputs":[{"name":"order","type":"tuple","internalType":"struct GaslessCrossChainOrder","components":[{"name":"originSettler","type":"address","internalType":"address"},{"name":"user","type":"address","internalType":"address"},{"name":"nonce","type":"uint256","internalType":"uint256"},{"name":"originChainId","type":"uint64","internalType":"uint64"},{"name":"openDeadline","type":"uint32","internalType":"uint32"},{"name":"fillDeadline","type":"uint32","internalType":"uint32"},{"name":"orderData","type":"bytes","internalType":"bytes"}]},{"name":"","type":"bytes","internalType":"bytes"},{"name":"permit","type":"bytes","internalType":"bytes"},{"name":"deadline","type":"uint48","internalType":"uint48"}],"outputs":[],"stateMutability":"nonpayable"},{"type":"function","name":"permitAndOpenFor","inputs":[{"name":"order","type":"tuple","internalType":"struct GaslessCrossChainOrder","components":[{"name":"originSettler","type":"address","internalType":"address"},{"name":"user","type":"address","internalType":"address"},{"name":"nonce","type":"uint256","internalType":"uint256"},{"name":"originChainId","type":"uint64","internalType":"uint64"},{"name":"openDeadline","type":"uint32","internalType":"uint32"},{"name":"fillDeadline","type":"uint32","internalType":"uint32"},{"name":"orderData","type":"bytes","internalType":"bytes"}]},{"name":"signature","type":"bytes","internalType":"bytes"},{"name":"fillerData","type":"bytes","internalType":"bytes"},{"name":"deadlines","type":"uint256[]","internalType":"uint256[]"},{"name":"v","type":"uint8[]","internalType":"uint8[]"},{"name":"r","type":"bytes32[]","internalType":"bytes32[]"},{"name":"s","type":"bytes32[]","internalType":"bytes32[]"}],"outputs":[],"stateMutability":"nonpayable"},{"type":"function","name":"reclaim","inputs":[{"name":"order","type":"tuple","internalType":"struct ResolvedCrossChainOrder","components":[{"name":"user","type":"address","internalType":"address"},{"name":"originChainId","type":"uint64","internalType":"uint64"},{"name":"openDeadline","type":"uint32","internalType":"uint32"},{"name":"fillDeadline","type":"uint32","internalType":"uint32"},{"name":"maxSpent","type":"tuple[]","internalType":"struct Input[]","components":[{"name":"token","type":"address","internalType":"address"},{"name":"amount","type":"uint256","internalType":"uint256"}]},{"name":"minReceived","type":"tuple[]","internalType":"struct Output[]","components":[{"name":"token","type":"bytes32","internalType":"bytes32"},{"name":"amount","type":"uint256","internalType":"uint256"},{"name":"recipient","type":"bytes32","internalType":"bytes32"},{"name":"chainId","type":"uint32","internalType":"uint32"}]},{"name":"fillInstructions","type":"tuple[]","internalType":"struct FillInstruction[]","components":[{"name":"destinationChainId","type":"uint32","internalType":"uint32"},{"name":"destinationSettler","type":"bytes32","internalType":"bytes32"},{"name":"originData","type":"bytes","internalType":"bytes"}]}]},{"name":"proof","type":"bytes","internalType":"bytes"}],"outputs":[],"stateMutability":"nonpayable"},{"type":"function","name":"renounceOwnership","inputs":[],"outputs":[],"stateMutability":"nonpayable"},{"type":"function","name":"resolve","inputs":[{"name":"order","type":"tuple","internalType":"struct OnchainCrossChainOrder","components":[{"name":"fillDeadline","type":"uint32","internalType":"uint32"},{"name":"orderData","type":"bytes","internalType":"bytes"}]}],"outputs":[{"name":"","type":"tuple","internalType":"struct ResolvedCrossChainOrder","components":[{"name":"user","type":"address","internalType":"address"},{"name":"originChainId","type":"uint64","internalType":"uint64"},{"name":"openDeadline","type":"uint32","internalType":"uint32"},{"name":"fillDeadline","type":"uint32","internalType":"uint32"},{"name":"maxSpent","type":"tuple[]","internalType":"struct Input[]","components":[{"name":"token","type":"address","internalType":"address"},{"name":"amount","type":"uint256","internalType":"uint256"}]},{"name":"minReceived","type":"tuple[]","internalType":"struct Output[]","components":[{"name":"token","type":"bytes32","internalType":"bytes32"},{"name":"amount","type":"uint256","internalType":"uint256"},{"name":"recipient","type":"bytes32","internalType":"bytes32"},{"name":"chainId","type":"uint32","internalType":"uint32"}]},{"name":"fillInstructions","type":"tuple[]","internalType":"struct FillInstruction[]","components":[{"name":"destinationChainId","type":"uint32","internalType":"uint32"},{"name":"destinationSettler","type":"bytes32","internalType":"bytes32"},{"name":"originData","type":"bytes","internalType":"bytes"}]}]}],"stateMutability":"view"},{"type":"function","name":"resolveFor","inputs":[{"name":"order","type":"tuple","internalType":"struct GaslessCrossChainOrder","components":[{"name":"originSettler","type":"address","internalType":"address"},{"name":"user","type":"address","internalType":"address"},{"name":"nonce","type":"uint256","internalType":"uint256"},{"name":"originChainId","type":"uint64","internalType":"uint64"},{"name":"openDeadline","type":"uint32","internalType":"uint32"},{"name":"fillDeadline","type":"uint32","internalType":"uint32"},{"name":"orderData","type":"bytes","internalType":"bytes"}]},{"name":"","type":"bytes","internalType":"bytes"}],"outputs":[{"name":"","type":"tuple","internalType":"struct ResolvedCrossChainOrder","components":[{"name":"user","type":"address","internalType":"address"},{"name":"originChainId","type":"uint64","internalType":"uint64"},{"name":"openDeadline","type":"uint32","internalType":"uint32"},{"name":"fillDeadline","type":"uint32","internalType":"uint32"},{"name":"maxSpent","type":"tuple[]","internalType":"struct Input[]","components":[{"name":"token","type":"address","internalType":"address"},{"name":"amount","type":"uint256","internalType":"uint256"}]},{"name":"minReceived","type":"tuple[]","internalType":"struct Output[]","components":[{"name":"token","type":"bytes32","internalType":"bytes32"},{"name":"amount","type":"uint256","internalType":"uint256"},{"name":"recipient","type":"bytes32","internalType":"bytes32"},{"name":"chainId","type":"uint32","internalType":"uint32"}]},{"name":"fillInstructions","type":"tuple[]","internalType":"struct FillInstruction[]","components":[{"name":"destinationChainId","type":"uint32","internalType":"uint32"},{"name":"destinationSettler","type":"bytes32","internalType":"bytes32"},{"name":"originData","type":"bytes","internalType":"bytes"}]}]}],"stateMutability":"view"},{"type":"function","name":"transferOwnership","inputs":[{"name":"newOwner","type":"address","internalType":"address"}],"outputs":[],"stateMutability":"nonpayable"},{"type":"event","name":"Initialized","inputs":[{"name":"version","type":"uint64","indexed":false,"internalType":"uint64"}],"anonymous":false},{"type":"event","name":"Open","inputs":[{"name":"orderId","type":"bytes32","indexed":true,"internalType":"bytes32"},{"name":"resolvedOrder","type":"tuple","indexed":false,"internalType":"struct ResolvedCrossChainOrder","components":[{"name":"user","type":"address","internalType":"address"},{"name":"originChainId","type":"uint64","internalType":"uint64"},{"name":"openDeadline","type":"uint32","internalType":"uint32"},{"name":"fillDeadline","type":"uint32","internalType":"uint32"},{"name":"maxSpent","type":"tuple[]","internalType":"struct Input[]","components":[{"name":"token","type":"address","internalType":"address"},{"name":"amount","type":"uint256","internalType":"uint256"}]},{"name":"minReceived","type":"tuple[]","internalType":"struct Output[]","components":[{"name":"token","type":"bytes32","internalType":"bytes32"},{"name":"amount","type":"uint256","internalType":"uint256"},{"name":"recipient","type":"bytes32","internalType":"bytes32"},{"name":"chainId","type":"uint32","internalType":"uint32"}]},{"name":"fillInstructions","type":"tuple[]","internalType":"struct FillInstruction[]","components":[{"name":"destinationChainId","type":"uint32","internalType":"uint32"},{"name":"destinationSettler","type":"bytes32","internalType":"bytes32"},{"name":"originData","type":"bytes","internalType":"bytes"}]}]}],"anonymous":false},{"type":"event","name":"OwnershipTransferred","inputs":[{"name":"previousOwner","type":"address","indexed":true,"internalType":"address"},{"name":"newOwner","type":"address","indexed":true,"internalType":"address"}],"anonymous":false},{"type":"error","name":"InvalidContractSignature","inputs":[]},{"type":"error","name":"InvalidInitialization","inputs":[]},{"type":"error","name":"InvalidSignature","inputs":[]},{"type":"error","name":"InvalidSignatureLength","inputs":[]},{"type":"error","name":"InvalidSigner","inputs":[]},{"type":"error","name":"NotInitializing","inputs":[]},{"type":"error","name":"OwnableInvalidOwner","inputs":[{"name":"owner","type":"address","internalType":"address"}]},{"type":"error","name":"OwnableUnauthorizedAccount","inputs":[{"name":"account","type":"address","internalType":"address"}]}],"bytecode":{"object":"0x608080604052346100b8577ff0c57e16840df040f15088dc2f81fe391c3923bec73e23a9662efc9c229c6a009081549060ff8260401c166100a957506001600160401b036002600160401b031982821601610064575b6040516123f390816100bd8239f35b6001600160401b031990911681179091556040519081527fc7f505b2f371ae2175ee4913f4499e1f2633a7b5936321eed1cdaeb6115181d290602090a15f8080610055565b63f92ee8a960e01b8152600490fd5b5f80fdfe6080806040526004361015610012575f80fd5b5f3560e01c90816312261ee7146115ee5750806320b8c265146111995780633644e5151461117c5780634342a40c146111375780634b86d6ed14610f08578063715018a614610ea1578063809f870f14610e6a5780638da5cb5b14610e365780639c3f1e9014610e07578063a03f9b2414610dcb578063b082a27414610d91578063b992e92b14610d56578063ba8dd2c014610c9b578063c4d66de814610a8d578063d52c460914610639578063f0380c7814610165578063f2fde38b1461013a5763f3486df1146100e2575f80fd5b34610136576101326101266100f636611a51565b6100fe611f3d565b5061012061011a6101126020840184611ce5565b810190611d17565b91611ae3565b9061217f565b604051918291826118a8565b0390f35b5f80fd5b3461013657602036600319011261013657610163610156611729565b61015e612324565b611f83565b005b34610136576080366003190112610136576004356001600160401b038082116101365760e0600319833603011261013657602435818111610136576101ae903690600401611611565b5050604435908111610136576101c8903690600401611611565b916064359265ffffffffffff8416809403610136576101f061011260c4840184600401611ce5565b9361020661020060a48501611ae3565b8661217f565b92604051938461021a6020820192836118a8565b039461022e601f1996878101835282611708565b519020946020870193845151978661025e6102488b611753565b9a6102566040519c8d611708565b808c52611753565b015f5b8181106106155750508551519661029061027a89611753565b986102886040519a8b611708565b808a52611753565b015f5b8181106105f25750505f5b8651805182101561033f57600191906001600160a01b03906102c1908390611b15565b51511660206102d1838b51611b15565b510151604051916102e18361169c565b825260208201526102f2828d611b15565b526102fd818c611b15565b50602061030b828a51611b15565b5101516040519061031b8261169c565b308252602082015261032d828b611b15565b52610338818a611b15565b500161029e565b5050919450929561036a9296604051986103588a6116b7565b89525f60208a01526040890152611b29565b6003546001600160a01b0316939061038460248701611af4565b9060405191610392836116ed565b60a983527f496e74656e74207769746e65737329496e74656e74286164647265737320726560208401527f66756e6442656e65666963696172792c28616464726573732c75696e7432353660408401527f295b5d20696e707574732c6279746573323120746f2c75696e74323536206f7560608401527f74707574416d6f756e742c62797465733332206f72646572496429546f6b656e60808401527f5065726d697373696f6e73286164647265737320746f6b656e2c75696e74323560a0840152683620616d6f756e742960b81b60c0840152863b156101365760405163fe8ec1a760e01b815260c060048201528951606060c483015280516101248301819052919a8b989796959493926101448a0192602001905f5b8181106105ae57505050806020604092015160e48b01520151610104890152600319888203016024890152602080865192838152019501905f5b81811061056e575050506001600160a01b0316604487015260648601528482036003190160848601525f95938593879385936105379392916105259161186a565b8481036003190160a486015291611ac3565b03925af19182156105635761016392610554575b50600401611d7b565b61055d90611689565b8261054b565b6040513d5f823e3d90fd5b919697985091929394602060408261059b6001948b516020809160018060a01b0381511684520151910152565b0197019101918b989796959493926104e4565b919495969798999a50919260206040826105dd60019489516020809160018060a01b0381511684520151910152565b0195019101918d9a99989796959493926104aa565b6020906040516106018161169c565b5f81525f8382015282828c01015201610293565b808b60208093604051926106288461169c565b5f84525f8385015201015201610261565b346101365760031960e036820112610136576001600160401b039081600435116101365760e090600435360301126101365760243581811161013657610683903690600401611611565b90916044358181116101365761069d903690600401611611565b5050606435818111610136576106b7903690600401611a82565b9091608435818111610136576106d1903690600401611a82565b95909160a435818111610136576106ec903690600401611a82565b909160c43511610136576107053660c435600401611a82565b92909461071f61011260c460043501600435600401611ce5565b9761072e602460043501611af4565b955f5b60208b0151805182101561081f57908b8b8f938361077a8160206107708282610782976107658360018060a01b0392611b15565b515116990151611b15565b510151948a611f73565b359589611f73565b3560ff81168103610136578c6107a5858d61079e828f8f611f73565b3593611f73565b3591843b15610136575f9460e4938f9360ff88946040519b8c998a9863d505accf60e01b8a5260018060a01b031660048a01523060248a01526044890152606488015216608486015260a485015260c48401525af191821561056357600192610810575b5001610731565b61081990611689565b8e610809565b8c8361083861011260c460043501600435600401611ce5565b9161087f8361085461084e60a460043501611ae3565b8261217f565b604051610877816108696020820194856118a8565b03601f198101835282611708565b519020611b29565b9061088e602460043501611af4565b92833b6109cf576041820361096c576108a98282018261230e565b93909260401015610958576020935f9360ff6040608095013560f81c5b60405194855216868401526040830152606082015282805260015afa15610563575f516001600160a01b0316908115610946576001600160a01b031603610934576020610926915b01513090610920602460043501611af4565b9061204a565b610163600435600401611d7b565b604051632057875960e21b8152600490fd5b604051638baa579f60e01b8152600490fd5b634e487b7160e01b5f52603260045260245ffd5b604082036109bd576109809181019061230e565b6001600160ff1b0381169260ff91821c601b019182116109a9576020935f9360ff6080946108c6565b634e487b7160e01b5f52601160045260245ffd5b604051634be6321b60e01b8152600490fd5b610a029293602092604051809581948293630b135d3f60e11b998a85526004850152604060248501526044840191611ac3565b03916001600160a01b03165afa908115610563575f91610a4a575b506001600160e01b03191603610a385760206109269161090e565b604051632c19a72f60e21b8152600490fd5b90506020813d602011610a85575b81610a6560209383611708565b8101031261013657516001600160e01b0319811681036101365783610a1d565b3d9150610a58565b3461013657602036600319011261013657610aa6611729565b7ff0c57e16840df040f15088dc2f81fe391c3923bec73e23a9662efc9c229c6a0080549160ff8360401c1615906001600160401b039384811680159081610c93575b6001149081610c89575b159081610c80575b50610c6e5767ffffffffffffffff198116600117845582610c4f575b50610b1f61235c565b610b2761235c565b610b3033611f83565b610b3861235c565b60405160208101907f8b73c3c69bb8fe3d512ecc4cf759cc79239f7b179b0ffacaa9a75d522b39400f82527ff8e1a36a5e6aeef746a16251b6283ba191edaef0070c59bd64a645999629de1760408201527fc89efdaa54c0f20c7adf612882df0950f5a951637e0307cdcb4c672f298b8bc660608201524660808201523060a082015260a0815260c081019581871090871117610c3b578560405251902060025560018060a01b03166bffffffffffffffffffffffff60a01b6003541617600355610bff57005b805468ff000000000000000019169055600181527fc7f505b2f371ae2175ee4913f4499e1f2633a7b5936321eed1cdaeb6115181d290602090a1005b634e487b7160e01b5f52604160045260245ffd5b68ffffffffffffffffff19166801000000000000000117835584610b16565b60405163f92ee8a960e01b8152600490fd5b90501586610afa565b303b159150610af2565b849150610ae8565b3461013657610cf0610cac36611a51565b610cc6610cb882611ae3565b63ffffffff42911611611d3f565b610120610cd96101126020840184611ce5565b91610ceb60208401513090339061204a565b611ae3565b7fc07a2da451988bb878366bc55e873a9a51f48f6f3a14820b4fd0cb1b7f2f652d610d516040516020810190610d2a8161086987856118a8565b51902092835f52600160205260405f20600160ff19825416179055604051918291826118a8565b0390a2005b3461013657610132610126610d6a3661163e565b5050610d74611f3d565b5061012060a0610d8a61011260c0850185611ce5565b9201611ae3565b34610136575f3660031901126101365760206040517fdfd9cd3360ba110d5a1e7f4ad2c7f1406b874bfa0ec50976190c3ca89a38d5998152f35b346101365760031960203682011261013657600435906001600160401b0382116101365760e09082360301126101365761016390600401611d7b565b34610136576020366003190112610136576004355f526001602052602060ff60405f2054166040519015158152f35b34610136575f366003190112610136575f8051602061239e833981519152546040516001600160a01b039091168152602090f35b34610136576020366003190112610136576001600160a01b03610e8b611729565b165f525f602052602060405f2054604051908152f35b34610136575f36600319011261013657610eb9612324565b5f8051602061239e83398151915280546001600160a01b031981169091555f906001600160a01b03167f8be0079c531659141344cd1fd0a4f28419497f9722a3daafe3b4186f6b6457e08280a3005b3461013657600319606036820112610136576001600160401b03906004358281116101365760e0816004019282360301126101365760243583811161013657610f55903690600401611611565b909360443590811161013657610f6f903690600401611611565b5050610f8161011260c4840185611ce5565b93610f9161020060a48501611ae3565b926024610fb08760405196602097610877816108698b820194856118a8565b910192610fbc84611af4565b9285843b61108c57506041820361105057610fd98282018261230e565b939092604010156109585786935f9360ff6040608095013560f81c5b60405194855216868401526040830152606082015282805260015afa15610563575f516001600160a01b039081169182156109465716036109345761104461104b92610163955b015191611af4565b309161204a565b611d7b565b604082036109bd576110649181019061230e565b6001600160ff1b0381169260ff91821c601b019182116109a95786935f9360ff608094610ff5565b91936110be9394604051809581948293630b135d3f60e11b998a85526004850152604060248501526044840191611ac3565b03916001600160a01b03165afa908115610563575f916110f9575b506001600160e01b03191603610a385761104461104b926101639561103c565b90508381813d8311611130575b6111108183611708565b8101031261013657516001600160e01b03198116810361013657866110d9565b503d611106565b34610136576040366003190112610136576024356001600160401b0381116101365761117461116c60209236906004016117e4565b600435611b29565b604051908152f35b34610136575f366003190112610136576020600254604051908152f35b34610136576111a73661163e565b50506040516020808201526001600160a01b036111c38361173f565b16604082015260208201356001600160401b03811680910361013657606082015263ffffffff6111f560408401611ab2565b16608082015263ffffffff61120c60608401611ab2565b1660a0820152601e19823603016080830135121561013657816080810135016001600160401b0381351161013657803560061b360360208201136101365760e060c0830152803561012083015261014082019060208101905f5b813581106115be5750505060a0830135601e1984360301811215610136578301906001600160401b0382351161013657813560071b3603602083011361013657602090603f198482030160e085015282358152019060208101905f5b8135811061157b57505050601e198336030160c08401351215610136576001600160401b038360c08101350135116101365760c08301358301803560051b360360209091011361013657818103603f190161010083015260c083013583018035808352602091820192849260059290921b810182019181015f5b8760c0810135013581106114d157505050611360925003601f198101835282611708565b6020815191012090815f526001602052600160ff60405f2054161515036114965761138d60608201611ae3565b63ffffffff4291161161141e575b608081013581018035906001600160401b03821161013657602001908060061b36038213610136576113f5924263ffffffff6113d960608401611ae3565b16111561140c57506113f033925b3092369161176a565b61204a565b5f908152600160205260409020805460ff19169055005b6114186113f091611af4565b926113e7565b60c0810135810180356001600160401b0381116101365760209060051b3603910113610136575f8051602061239e833981519152546001600160a01b0316331461139b5760405162461bcd60e51b815260206004820152600c60248201526b125b9d985b1a5908199a5b1b60a21b6044820152606490fd5b60405162461bcd60e51b815260206004820152601360248201527213dc99195c88191bd95cdb89dd08195e1a5cdd606a1b6044820152606490fd5b828403601f1901825291935091843560c088013588013603607e1901811215610136578760c0810135010163ffffffff61150d60208301611ab2565b168252604081013560208301526060810135603e19823603018112156101365701604060208201359101906001600160401b03811161013657803603821361013657611569602092839260608681604060019901520191611ac3565b9601930191019085939194929461133c565b90919260808060019286358152602087013560208201526040870135604082015263ffffffff6115ad60608901611ab2565b1660608201520194019291016112c2565b909192604080600192838060a01b036115d68861173f565b16815260208781013590820152019401929101611266565b34610136575f366003190112610136576003546001600160a01b03168152602090f35b9181601f84011215610136578235916001600160401b038311610136576020838186019501011161013657565b90600319604081840112610136576004356001600160401b03918282116101365760e090828603011261013657600401926024359182116101365761168591600401611611565b9091565b6001600160401b038111610c3b57604052565b604081019081106001600160401b03821117610c3b57604052565b606081019081106001600160401b03821117610c3b57604052565b608081019081106001600160401b03821117610c3b57604052565b60e081019081106001600160401b03821117610c3b57604052565b90601f801991011681019081106001600160401b03821117610c3b57604052565b600435906001600160a01b038216820361013657565b35906001600160a01b038216820361013657565b6001600160401b038111610c3b5760051b60200190565b92919261177682611753565b6040926117866040519283611708565b819581835260208093019160061b84019381851161013657915b8483106117af57505050505050565b85838303126101365783869182516117c68161169c565b6117cf8661173f565b815282860135838201528152019201916117a0565b91909160808184031261013657604051906117fe826116d2565b81936118098261173f565b835260208201356001600160401b0381116101365782019080601f830112156101365781602061183b9335910161176a565b602083015260408101356affffffffffffffffffffff1981168103610136576040830152606090810135910152565b91908251928382525f5b848110611894575050825f602080949584010152601f8019910116010190565b602081830181015184830182015201611874565b90602080835261010083019060018060a01b038351168185015280830151906001600160401b0360409216828601528184015193606063ffffffff8096168188015280820151918660809316608089015260808101519560e060a08a01528651809152846101208a019701905f5b818110611a115750505060a081015192601f1996878a82030160c08b01528580865192838152019501915f905b8282106119df575050505060c001519660e086828503019101528651938483528383019184808760051b8601019901965f945b87861061198a575050505050505050505090565b9091929394959697989a9987806119c9838f898f918a928d8b8b60019b03019052519081511684528581015186850152015191818b820152019061186a565b9c9d9b0199989791909101950193929190611976565b8351805188528089015189890152808a01518a8901528601518b16868801529586019592870192600190910190611943565b90919495969397878582611a3e9c9e9d9c6001948a516020809160018060a01b0381511684520151910152565b9c9d9b9c01999598979601929101611916565b6003199060208183011261013657600435916001600160401b03831161013657826040920301126101365760040190565b9181601f84011215610136578235916001600160401b038311610136576020808501948460051b01011161013657565b359063ffffffff8216820361013657565b908060209392818452848401375f828201840152601f01601f1916010190565b3563ffffffff811681036101365790565b356001600160a01b03811681036101365790565b8051156109585760200190565b80518210156109585760209160051b010190565b9091602080840180515194611b3d86611753565b93611b58604097611b5089519788611708565b808752611753565b85850192601f199182013685375f5b85518051821015611bf157600191908b906001600160a01b0390611b8c908490611b15565b51511689611b9b848b51611b15565b5101518251918b8301937f10bddd38253b19b7f03ea3ebb1236b0434d2f99700881710f3e5cf59b2ff91608552830152606090818301528152611bdd816116d2565b519020611bea828b611b15565b5201611b67565b505093509695919394909660018060a01b0384511694875191828881018095519093905f5b8b828210611cce5750505050611c329203908101835282611708565b5190209160606affffffffffffffffffffff19878301511691015190865193868501957fdfd9cd3360ba110d5a1e7f4ad2c7f1406b874bfa0ec50976190c3ca89a38d5998752888601526060850152608084015260a083015260c082015260c08152611c9d816116ed565b51902060025492519182019261190160f01b84526022830152604282015260428152611cc8816116d2565b51902090565b835187529586019587945090920191600101611c16565b903590601e198136030182121561013657018035906001600160401b0382116101365760200191813603831361013657565b906020828203126101365781356001600160401b03811161013657611d3c92016117e4565b90565b15611d4657565b60405162461bcd60e51b815260206004820152600d60248201526c13dc99195c88195e1c1a5c9959609a1b6044820152606490fd5b611d8481611af4565b6001600160a01b0391903090831603611eff57611da360808201611ae3565b63ffffffff90814291161115611ec257611dcd60a08301914290611dc684611ae3565b1611611d3f565b604060209384840181611ddf82611af4565b165f525f8652825f20548386013503611e8e57611dfb90611af4565b165f525f8452805f20918254905f1982146109a95761012061011a6101127fc07a2da451988bb878366bc55e873a9a51f48f6f3a14820b4fd0cb1b7f2f652d97611e89976001611e529701905560c0810190611ce5565b906001815186810190611e698161086987856118a8565b51902095865f5252805f20600160ff1982541617905551918291826118a8565b0390a2565b825162461bcd60e51b815260048101879052600d60248201526c496e76616c6964206e6f6e636560981b6044820152606490fd5b60405162461bcd60e51b815260206004820152601560248201527413dc195b88191958591b1a5b9948195e1c1a5c9959605a1b6044820152606490fd5b60405162461bcd60e51b815260206004820152601660248201527524b73b30b634b21037b934b3b4b71039b2ba3a3632b960511b6044820152606490fd5b60405190611f4a826116ed565b606060c0835f81525f60208201525f60408201525f838201528260808201528260a08201520152565b91908110156109585760051b0190565b6001600160a01b03908116908115611fdc575f8051602061239e83398151915280546001600160a01b031981168417909155167f8be0079c531659141344cd1fd0a4f28419497f9722a3daafe3b4186f6b6457e05f80a3565b604051631e4fbdf760e01b81525f6004820152602490fd5b90816020910312610136575180151581036101365790565b1561201357565b60405162461bcd60e51b815260206004820152600f60248201526e151c985b9cd9995c8819985a5b1959608a1b6044820152606490fd5b92915f5b8451811015612178576001600160a01b038381163081036121095750806120758388611b15565b51511660208080612086868b611b15565b51015160446040955f8751968794859363a9059cbb60e01b85528c16600485015260248401525af19283156121005750916120cd91600194935f926120d3575b505061200c565b0161204e565b6120f29250803d106120f9575b6120ea8183611708565b810190611ff4565b5f806120c6565b503d6120e0565b513d5f823e3d90fd5b816121148489611b15565b5151169160208091606482612129888d611b15565b510151945f604097885197889586946323b872dd60e01b865260048601528c16602485015260448401525af192831561210057509161217391600194935f926120d357505061200c565b6120cd565b5050509050565b9091612189611f3d565b506040908151906121998261169c565b600182525f5b6020808210156121d6578451602092916121b8826116d2565b5f82525f818301525f878301525f606083015282860101520161219f565b5050936060926060850151918186015160581c928251936121f6856116d2565b7441a614f803b6fd780986a42c78ec9c7f77e6ded13c8552602091828601528385015263800000c39384606082015261222e86611b08565b5261223885611b08565b508251956122458761169c565b60018752815f5b8181106122e857505050825193612262856116b7565b84525f8185015282516001600160401b03949080830186811182821017610c3b5785525f81528482015261229587611b08565b5261229f86611b08565b508651968101518351979094906001600160a01b03166122be896116ed565b885246169087015263ffffffff8092870152166060850152608084015260a083015260c082015290565b85516122f3816116b7565b5f81525f83820152838782015282828b01015201829061224c565b9190826040910312610136576020823592013590565b5f8051602061239e833981519152546001600160a01b0316330361234457565b60405163118cdaa760e01b8152336004820152602490fd5b60ff7ff0c57e16840df040f15088dc2f81fe391c3923bec73e23a9662efc9c229c6a005460401c161561238b57565b604051631afcd79f60e31b8152600490fdfe9016d09d72d40fdae2fd8ceac6b6234c7706214fd39c1cd1e609a0528c199300a26469706673582212205630a50de7fc469907b4e59e1a567fd3984c638c33bbf315b1e525de5c5a9b3464736f6c63430008180033","linkReferences":{}},"methodIdentifiers":{"DOMAIN_SEPARATOR()":"3644e515","INTENT_TYPEHASH()":"b082a274","_messageHash(bytes32,(address,(address,uint256)[],bytes21,uint256))":"4342a40c","_openFor((address,address,uint256,uint64,uint32,uint32,bytes))":"a03f9b24","gaslessNonces(address)":"809f870f","initialize(address)":"c4d66de8","open((uint32,bytes))":"ba8dd2c0","openFor((address,address,uint256,uint64,uint32,uint32,bytes),bytes,bytes)":"4b86d6ed","orders(bytes32)":"9c3f1e90","owner()":"8da5cb5b","permit2()":"12261ee7","permit2AndOpenFor((address,address,uint256,uint64,uint32,uint32,bytes),bytes,bytes,uint48)":"f0380c78","permitAndOpenFor((address,address,uint256,uint64,uint32,uint32,bytes),bytes,bytes,uint256[],uint8[],bytes32[],bytes32[])":"d52c4609","reclaim((address,uint64,uint32,uint32,(address,uint256)[],(bytes32,uint256,bytes32,uint32)[],(uint32,bytes32,bytes)[]),bytes)":"20b8c265","renounceOwnership()":"715018a6","resolve((uint32,bytes))":"f3486df1","resolveFor((address,address,uint256,uint64,uint32,uint32,bytes),bytes)":"b992e92b","transferOwnership(address)":"f2fde38b"},"id":12}