{"abi":[{"type":"constructor","inputs":[],"stateMutability":"nonpayable"},{"type":"function","name":"DOMAIN_SEPARATOR","inputs":[],"outputs":[{"name":"","type":"bytes32","internalType":"bytes32"}],"stateMutability":"view"},{"type":"function","name":"INTENT_TYPEHASH","inputs":[],"outputs":[{"name":"","type":"bytes32","internalType":"bytes32"}],"stateMutability":"view"},{"type":"function","name":"_messageHash","inputs":[{"name":"orderId","type":"bytes32","internalType":"bytes32"},{"name":"intent","type":"tuple","internalType":"struct IUntronIntents.Intent","components":[{"name":"refundBeneficiary","type":"address","internalType":"address"},{"name":"inputs","type":"tuple[]","internalType":"struct Input[]","components":[{"name":"token","type":"address","internalType":"address"},{"name":"amount","type":"uint256","internalType":"uint256"}]},{"name":"to","type":"bytes21","internalType":"bytes21"},{"name":"outputAmount","type":"uint256","internalType":"uint256"}]}],"outputs":[{"name":"","type":"bytes32","internalType":"bytes32"}],"stateMutability":"view"},{"type":"function","name":"_openFor","inputs":[{"name":"order","type":"tuple","internalType":"struct GaslessCrossChainOrder","components":[{"name":"originSettler","type":"address","internalType":"address"},{"name":"user","type":"address","internalType":"address"},{"name":"nonce","type":"uint256","internalType":"uint256"},{"name":"originChainId","type":"uint64","internalType":"uint64"},{"name":"openDeadline","type":"uint32","internalType":"uint32"},{"name":"fillDeadline","type":"uint32","internalType":"uint32"},{"name":"orderData","type":"bytes","internalType":"bytes"}]}],"outputs":[],"stateMutability":"nonpayable"},{"type":"function","name":"fillDeadlines","inputs":[{"name":"","type":"bytes32","internalType":"bytes32"}],"outputs":[{"name":"","type":"uint32","internalType":"uint32"}],"stateMutability":"view"},{"type":"function","name":"gaslessNonces","inputs":[{"name":"","type":"address","internalType":"address"}],"outputs":[{"name":"","type":"uint256","internalType":"uint256"}],"stateMutability":"view"},{"type":"function","name":"initialize","inputs":[{"name":"_permit2","type":"address","internalType":"address"}],"outputs":[],"stateMutability":"nonpayable"},{"type":"function","name":"open","inputs":[{"name":"order","type":"tuple","internalType":"struct OnchainCrossChainOrder","components":[{"name":"fillDeadline","type":"uint32","internalType":"uint32"},{"name":"orderData","type":"bytes","internalType":"bytes"}]}],"outputs":[],"stateMutability":"nonpayable"},{"type":"function","name":"openFor","inputs":[{"name":"order","type":"tuple","internalType":"struct GaslessCrossChainOrder","components":[{"name":"originSettler","type":"address","internalType":"address"},{"name":"user","type":"address","internalType":"address"},{"name":"nonce","type":"uint256","internalType":"uint256"},{"name":"originChainId","type":"uint64","internalType":"uint64"},{"name":"openDeadline","type":"uint32","internalType":"uint32"},{"name":"fillDeadline","type":"uint32","internalType":"uint32"},{"name":"orderData","type":"bytes","internalType":"bytes"}]},{"name":"signature","type":"bytes","internalType":"bytes"},{"name":"","type":"bytes","internalType":"bytes"}],"outputs":[],"stateMutability":"nonpayable"},{"type":"function","name":"orders","inputs":[{"name":"","type":"bytes32","internalType":"bytes32"}],"outputs":[{"name":"","type":"bytes32","internalType":"bytes32"}],"stateMutability":"view"},{"type":"function","name":"owner","inputs":[],"outputs":[{"name":"","type":"address","internalType":"address"}],"stateMutability":"view"},{"type":"function","name":"permit2","inputs":[],"outputs":[{"name":"","type":"address","internalType":"contract IPermit2"}],"stateMutability":"view"},{"type":"function","name":"permit2AndOpenFor","inputs":[{"name":"order","type":"tuple","internalType":"struct GaslessCrossChainOrder","components":[{"name":"originSettler","type":"address","internalType":"address"},{"name":"user","type":"address","internalType":"address"},{"name":"nonce","type":"uint256","internalType":"uint256"},{"name":"originChainId","type":"uint64","internalType":"uint64"},{"name":"openDeadline","type":"uint32","internalType":"uint32"},{"name":"fillDeadline","type":"uint32","internalType":"uint32"},{"name":"orderData","type":"bytes","internalType":"bytes"}]},{"name":"","type":"bytes","internalType":"bytes"},{"name":"permit","type":"bytes","internalType":"bytes"},{"name":"deadline","type":"uint48","internalType":"uint48"}],"outputs":[],"stateMutability":"nonpayable"},{"type":"function","name":"permitAndOpenFor","inputs":[{"name":"order","type":"tuple","internalType":"struct GaslessCrossChainOrder","components":[{"name":"originSettler","type":"address","internalType":"address"},{"name":"user","type":"address","internalType":"address"},{"name":"nonce","type":"uint256","internalType":"uint256"},{"name":"originChainId","type":"uint64","internalType":"uint64"},{"name":"openDeadline","type":"uint32","internalType":"uint32"},{"name":"fillDeadline","type":"uint32","internalType":"uint32"},{"name":"orderData","type":"bytes","internalType":"bytes"}]},{"name":"signature","type":"bytes","internalType":"bytes"},{"name":"fillerData","type":"bytes","internalType":"bytes"},{"name":"deadlines","type":"uint256[]","internalType":"uint256[]"},{"name":"v","type":"uint8[]","internalType":"uint8[]"},{"name":"r","type":"bytes32[]","internalType":"bytes32[]"},{"name":"s","type":"bytes32[]","internalType":"bytes32[]"}],"outputs":[],"stateMutability":"nonpayable"},{"type":"function","name":"reclaim","inputs":[{"name":"orderId","type":"bytes32","internalType":"bytes32"},{"name":"intent","type":"tuple","internalType":"struct IUntronIntents.Intent","components":[{"name":"refundBeneficiary","type":"address","internalType":"address"},{"name":"inputs","type":"tuple[]","internalType":"struct Input[]","components":[{"name":"token","type":"address","internalType":"address"},{"name":"amount","type":"uint256","internalType":"uint256"}]},{"name":"to","type":"bytes21","internalType":"bytes21"},{"name":"outputAmount","type":"uint256","internalType":"uint256"}]},{"name":"proof","type":"bytes","internalType":"bytes"}],"outputs":[],"stateMutability":"nonpayable"},{"type":"function","name":"renounceOwnership","inputs":[],"outputs":[],"stateMutability":"nonpayable"},{"type":"function","name":"resolve","inputs":[{"name":"order","type":"tuple","internalType":"struct OnchainCrossChainOrder","components":[{"name":"fillDeadline","type":"uint32","internalType":"uint32"},{"name":"orderData","type":"bytes","internalType":"bytes"}]}],"outputs":[{"name":"","type":"tuple","internalType":"struct ResolvedCrossChainOrder","components":[{"name":"user","type":"address","internalType":"address"},{"name":"originChainId","type":"uint64","internalType":"uint64"},{"name":"openDeadline","type":"uint32","internalType":"uint32"},{"name":"fillDeadline","type":"uint32","internalType":"uint32"},{"name":"maxSpent","type":"tuple[]","internalType":"struct Input[]","components":[{"name":"token","type":"address","internalType":"address"},{"name":"amount","type":"uint256","internalType":"uint256"}]},{"name":"minReceived","type":"tuple[]","internalType":"struct Output[]","components":[{"name":"token","type":"bytes32","internalType":"bytes32"},{"name":"amount","type":"uint256","internalType":"uint256"},{"name":"recipient","type":"bytes32","internalType":"bytes32"},{"name":"chainId","type":"uint32","internalType":"uint32"}]},{"name":"fillInstructions","type":"tuple[]","internalType":"struct FillInstruction[]","components":[{"name":"destinationChainId","type":"uint32","internalType":"uint32"},{"name":"destinationSettler","type":"bytes32","internalType":"bytes32"},{"name":"originData","type":"bytes","internalType":"bytes"}]}]}],"stateMutability":"view"},{"type":"function","name":"resolveFor","inputs":[{"name":"order","type":"tuple","internalType":"struct GaslessCrossChainOrder","components":[{"name":"originSettler","type":"address","internalType":"address"},{"name":"user","type":"address","internalType":"address"},{"name":"nonce","type":"uint256","internalType":"uint256"},{"name":"originChainId","type":"uint64","internalType":"uint64"},{"name":"openDeadline","type":"uint32","internalType":"uint32"},{"name":"fillDeadline","type":"uint32","internalType":"uint32"},{"name":"orderData","type":"bytes","internalType":"bytes"}]},{"name":"","type":"bytes","internalType":"bytes"}],"outputs":[{"name":"","type":"tuple","internalType":"struct ResolvedCrossChainOrder","components":[{"name":"user","type":"address","internalType":"address"},{"name":"originChainId","type":"uint64","internalType":"uint64"},{"name":"openDeadline","type":"uint32","internalType":"uint32"},{"name":"fillDeadline","type":"uint32","internalType":"uint32"},{"name":"maxSpent","type":"tuple[]","internalType":"struct Input[]","components":[{"name":"token","type":"address","internalType":"address"},{"name":"amount","type":"uint256","internalType":"uint256"}]},{"name":"minReceived","type":"tuple[]","internalType":"struct Output[]","components":[{"name":"token","type":"bytes32","internalType":"bytes32"},{"name":"amount","type":"uint256","internalType":"uint256"},{"name":"recipient","type":"bytes32","internalType":"bytes32"},{"name":"chainId","type":"uint32","internalType":"uint32"}]},{"name":"fillInstructions","type":"tuple[]","internalType":"struct FillInstruction[]","components":[{"name":"destinationChainId","type":"uint32","internalType":"uint32"},{"name":"destinationSettler","type":"bytes32","internalType":"bytes32"},{"name":"originData","type":"bytes","internalType":"bytes"}]}]}],"stateMutability":"view"},{"type":"function","name":"transferOwnership","inputs":[{"name":"newOwner","type":"address","internalType":"address"}],"outputs":[],"stateMutability":"nonpayable"},{"type":"event","name":"Initialized","inputs":[{"name":"version","type":"uint64","indexed":false,"internalType":"uint64"}],"anonymous":false},{"type":"event","name":"Open","inputs":[{"name":"orderId","type":"bytes32","indexed":true,"internalType":"bytes32"},{"name":"resolvedOrder","type":"tuple","indexed":false,"internalType":"struct ResolvedCrossChainOrder","components":[{"name":"user","type":"address","internalType":"address"},{"name":"originChainId","type":"uint64","internalType":"uint64"},{"name":"openDeadline","type":"uint32","internalType":"uint32"},{"name":"fillDeadline","type":"uint32","internalType":"uint32"},{"name":"maxSpent","type":"tuple[]","internalType":"struct Input[]","components":[{"name":"token","type":"address","internalType":"address"},{"name":"amount","type":"uint256","internalType":"uint256"}]},{"name":"minReceived","type":"tuple[]","internalType":"struct Output[]","components":[{"name":"token","type":"bytes32","internalType":"bytes32"},{"name":"amount","type":"uint256","internalType":"uint256"},{"name":"recipient","type":"bytes32","internalType":"bytes32"},{"name":"chainId","type":"uint32","internalType":"uint32"}]},{"name":"fillInstructions","type":"tuple[]","internalType":"struct FillInstruction[]","components":[{"name":"destinationChainId","type":"uint32","internalType":"uint32"},{"name":"destinationSettler","type":"bytes32","internalType":"bytes32"},{"name":"originData","type":"bytes","internalType":"bytes"}]}]}],"anonymous":false},{"type":"event","name":"OwnershipTransferred","inputs":[{"name":"previousOwner","type":"address","indexed":true,"internalType":"address"},{"name":"newOwner","type":"address","indexed":true,"internalType":"address"}],"anonymous":false},{"type":"error","name":"InvalidContractSignature","inputs":[]},{"type":"error","name":"InvalidInitialization","inputs":[]},{"type":"error","name":"InvalidSignature","inputs":[]},{"type":"error","name":"InvalidSignatureLength","inputs":[]},{"type":"error","name":"InvalidSigner","inputs":[]},{"type":"error","name":"NotInitializing","inputs":[]},{"type":"error","name":"OwnableInvalidOwner","inputs":[{"name":"owner","type":"address","internalType":"address"}]},{"type":"error","name":"OwnableUnauthorizedAccount","inputs":[{"name":"account","type":"address","internalType":"address"}]}],"bytecode":{"object":"0x608080604052346100b8577ff0c57e16840df040f15088dc2f81fe391c3923bec73e23a9662efc9c229c6a009081549060ff8260401c166100a957506001600160401b036002600160401b031982821601610064575b60405161222890816100bd8239f35b6001600160401b031990911681179091556040519081527fc7f505b2f371ae2175ee4913f4499e1f2633a7b5936321eed1cdaeb6115181d290602090a15f8080610055565b63f92ee8a960e01b8152600490fd5b5f80fdfe6080806040526004361015610012575f80fd5b60e05f35811c91826312261ee7146113e0575081633644e515146113c35781634342a40c1461137e5781634b86d6ed14611156578163715018a6146110ef578163809f870f146110b857816383d1fce4146110885781638da5cb5b146110545781639c3f1e901461102a578163a03f9b2414610ff0578163af04973814610e3f578163b082a27414610e05578163b992e92b14610d8d578163ba8dd2c014610c79578163c4d66de814610a6b578163d52c46091461062a578163f0380c781461017257508063f2fde38b146101475763f3486df1146100ef575f80fd5b346101435761013f610133610103366117e0565b61010b611d58565b5061012d61012761011f6020840184611a6a565b810190611a9c565b91611ad5565b90612009565b60405191829182611689565b0390f35b5f80fd5b34610143576020366003190112610143576101706101636114a3565b61016b611fd1565b611dbf565b005b34610143576080366003190112610143576004356001600160401b03808211610143578160040192600319833603011261014357602435818111610143576101be9036906004016115cc565b5050604435908111610143576101d89036906004016115cc565b60649291923565ffffffffffff8116809103610143576101fe61011f60c4850187611a6a565b9460405193602085018561021284836119c3565b0395610226601f1997888101835282611482565b51902095602088019485515198876102566102408c6114cd565b9b61024e6040519d8e611482565b808d526114cd565b015f5b818110610606575050865151976102886102728a6114cd565b996102806040519b8c611482565b808b526114cd565b015f5b8181106105e35750505f5b8a88518051831015610335576102e883809360206102cc838f966102c260019a8b8060a01b0392611d9b565b5151169651611d9b565b510151604051946102dc86611416565b85526020850152611d9b565b526102f3818d611d9b565b506020610301828b51611d9b565b5101516040519061031182611416565b3082526020820152610323828c611d9b565b5261032e818b611d9b565b5001610296565b509661035f9150918a8a936040519961034d8b611431565b8a525f60208b015260408a0152611841565b6004546001600160a01b03169461037890602401611ac1565b906040519161038683611467565b60a983527f496e74656e74207769746e65737329496e74656e74286164647265737320726560208401527f66756e6442656e65666963696172792c28616464726573732c75696e7432353660408401527f295b5d20696e707574732c6279746573323120746f2c75696e74323536206f7560608401527f74707574416d6f756e742c62797465733332206f72646572496429546f6b656e60808401527f5065726d697373696f6e73286164647265737320746f6b656e2c75696e74323560a0840152683620616d6f756e742960b81b60c0840152863b156101435760405163fe8ec1a760e01b815260c060048201528951606060c483015280516101248301819052919a8b989796959493926101448a0192602001905f5b81811061059f57505050806020604092015160e48b01520151610104890152600319888203016024890152602080865192838152019501905f5b81811061055f575050506001600160a01b0316604487015260648601528482036003190160848601525f959385938793859361052b9392916105199161164b565b8481036003190160a4860152916119a3565b03925af19182156105545761017092610545575b50611b67565b61054e90611403565b8261053f565b6040513d5f823e3d90fd5b919697985091929394602060408261058c6001948b516020809160018060a01b0381511684520151910152565b0197019101918b989796959493926104d8565b919495969798999a50919260206040826105ce60019489516020809160018060a01b0381511684520151910152565b0195019101918d9a999897969594939261049e565b6020906040516105f281611416565b5f81525f8382015282828d0101520161028b565b808c602080936040519261061984611416565b5f84525f8385015201015201610259565b3461014357600319908082360112610143576001600160401b03918260043511610143576004353603011261014357602435818111610143576106719036906004016115cc565b90916044358181116101435761068b9036906004016115cc565b5050606435818111610143576106a5903690600401611811565b9091608435818111610143576106bf903690600401611811565b95909160a435818111610143576106da903690600401611811565b909160c43511610143576106f33660c435600401611811565b92909461070d61011f60c460043501600435600401611a6a565b9761071c602460043501611ac1565b955f5b60208b0151805182101561080d57908b8b8f938361076881602061075e8282610770976107538360018060a01b0392611d9b565b515116990151611d9b565b510151948a611daf565b359589611daf565b3560ff81168103610143578c610793858d61078c828f8f611daf565b3593611daf565b3591843b15610143575f9460e4938f9360ff88946040519b8c998a9863d505accf60e01b8a5260018060a01b031660048a01523060248a01526044890152606488015216608486015260a485015260c48401525af1918215610554576001926107fe575b500161071f565b61080790611403565b8e6107f7565b8c8360405160208101906108388161082a600435600401856119c3565b03601f198101835282611482565b5190209161085d61085661011f60c460043501600435600401611a6a565b8094611841565b9061086c602460043501611ac1565b92833b6109ad576041820361094a5761088782820182611e30565b93909260401015610936576020935f9360ff6040608095013560f81c5b60405194855216868401526040830152606082015282805260015afa15610554575f516001600160a01b0316908115610924576001600160a01b031603610912576020610904915b015130906108fe602460043501611ac1565b90611e9c565b610170600435600401611b67565b604051632057875960e21b8152600490fd5b604051638baa579f60e01b8152600490fd5b634e487b7160e01b5f52603260045260245ffd5b6040820361099b5761095e91810190611e30565b6001600160ff1b0381169260ff91821c601b01918211610987576020935f9360ff6080946108a4565b634e487b7160e01b5f52601160045260245ffd5b604051634be6321b60e01b8152600490fd5b6109e09293602092604051809581948293630b135d3f60e11b998a855260048501526040602485015260448401916119a3565b03916001600160a01b03165afa908115610554575f91610a28575b506001600160e01b03191603610a16576020610904916108ec565b604051632c19a72f60e21b8152600490fd5b90506020813d602011610a63575b81610a4360209383611482565b8101031261014357516001600160e01b03198116810361014357836109fb565b3d9150610a36565b3461014357602036600319011261014357610a846114a3565b7ff0c57e16840df040f15088dc2f81fe391c3923bec73e23a9662efc9c229c6a0080549160ff8360401c1615906001600160401b039384811680159081610c71575b6001149081610c67575b159081610c5e575b50610c4c5767ffffffffffffffff198116600117845582610c2d575b50610afd612191565b610b05612191565b610b0e33611dbf565b610b16612191565b60405160208101907f8b73c3c69bb8fe3d512ecc4cf759cc79239f7b179b0ffacaa9a75d522b39400f82527ff8e1a36a5e6aeef746a16251b6283ba191edaef0070c59bd64a645999629de1760408201527fc89efdaa54c0f20c7adf612882df0950f5a951637e0307cdcb4c672f298b8bc660608201524660808201523060a082015260a0815260c081019581871090871117610c19578560405251902060035560018060a01b03166bffffffffffffffffffffffff60a01b6004541617600455610bdd57005b805468ff000000000000000019169055600181527fc7f505b2f371ae2175ee4913f4499e1f2633a7b5936321eed1cdaeb6115181d290602090a1005b634e487b7160e01b5f52604160045260245ffd5b68ffffffffffffffffff19166801000000000000000117835584610af4565b60405163f92ee8a960e01b8152600490fd5b90501586610ad8565b303b159150610ad0565b849150610ac6565b3461014357610c87366117e0565b7fc07a2da451988bb878366bc55e873a9a51f48f6f3a14820b4fd0cb1b7f2f652d610d8882610cb581611ad5565b610cc863ffffffff918242911611611ae6565b604051906002610d686020938481019085825284610ce588611961565b166040820152610d108161082a610cff898b01809b611972565b6040606085015260808401916119a3565b51902097610d51610d4a610d43610d2a61011f8a86611a6a565b610d3a8982015130903390611e9c565b61012d85611ad5565b9783611a6a565b3691611b22565b858151910120895f526001865260405f2055611ad5565b925260405f20911663ffffffff1982541617905560405191829182611689565b0390a2005b346101435760031960403682011261014357600435916001600160401b0391828411610143578336030112610143576024359081116101435761013f91610ddb6101339236906004016115cc565b5050610de5611d58565b5061012d60a4610dfe61011f60c4850185600401611a6a565b9201611ad5565b34610143575f3660031901126101435760206040517f8714971ff418cd51c9a81343036eeb8fde730ca427825dbc7290de440707acf98152f35b34610143576060366003190112610143576001600160401b0360043560243582811161014357610e739036906004016114e4565b9160443590811161014357610e8c9036906004016115cc565b5050805f526020906001825260405f2054604051938385019184835260018060a01b039283835116604088015285830196610f0781610ed78a516080606084015260c08301906115f9565b60408701516affffffffffffffffffffff19166080830152606087015160a083015203601f198101835282611482565b51902003610fba57825f526002845263ffffffff60405f20541642109485610f6e575b51600295610f469391929015610f6657505033905b3090611e9c565b5f52600181525f60408120555260405f2063ffffffff1981541690555f80f35b511690610f3f565b825f805160206121d38339815191525416330315610f2a5760405162461bcd60e51b815260048101869052600c60248201526b125b9d985b1a5908199a5b1b60a21b6044820152606490fd5b60405162461bcd60e51b815260048101859052600e60248201526d125b9d985b1a59081a5b9d195b9d60921b6044820152606490fd5b34610143576003199060203683011261014357600435916001600160401b0383116101435782360301126101435761017090600401611b67565b34610143576020366003190112610143576004355f526001602052602060405f2054604051908152f35b34610143575f366003190112610143575f805160206121d3833981519152546040516001600160a01b039091168152602090f35b34610143576020366003190112610143576004355f526002602052602063ffffffff60405f205416604051908152f35b34610143576020366003190112610143576001600160a01b036110d96114a3565b165f525f602052602060405f2054604051908152f35b34610143575f36600319011261014357611107611fd1565b5f805160206121d383398151915280546001600160a01b031981169091555f906001600160a01b03167f8be0079c531659141344cd1fd0a4f28419497f9722a3daafe3b4186f6b6457e08280a3005b346101435760031960603682011261014357600435916001600160401b0390818411610143578360040192843603011261014357602435818111610143576111a29036906004016115cc565b9091604435908111610143576111bc9036906004016115cc565b505060405191602092838101906111d78161082a88856119c3565b5190209460246111f76111f061011f60c4850189611a6a565b8098611841565b91019261120384611ac1565b9285843b6112d35750604182036112975761122082820182611e30565b939092604010156109365786935f9360ff6040608095013560f81c5b60405194855216868401526040830152606082015282805260015afa15610554575f516001600160a01b039081169182156109245716036109125761128b61129292610170955b015191611ac1565b3091611e9c565b611b67565b6040820361099b576112ab91810190611e30565b6001600160ff1b0381169260ff91821c601b019182116109875786935f9360ff60809461123c565b91936113059394604051809581948293630b135d3f60e11b998a855260048501526040602485015260448401916119a3565b03916001600160a01b03165afa908115610554575f91611340575b506001600160e01b03191603610a165761128b6112929261017095611283565b90508381813d8311611377575b6113578183611482565b8101031261014357516001600160e01b0319811681036101435786611320565b503d61134d565b34610143576040366003190112610143576024356001600160401b038111610143576113bb6113b360209236906004016114e4565b600435611841565b604051908152f35b34610143575f366003190112610143576020600354604051908152f35b34610143575f366003190112610143576004546001600160a01b03168152602090f35b6001600160401b038111610c1957604052565b604081019081106001600160401b03821117610c1957604052565b606081019081106001600160401b03821117610c1957604052565b608081019081106001600160401b03821117610c1957604052565b60e081019081106001600160401b03821117610c1957604052565b90601f801991011681019081106001600160401b03821117610c1957604052565b600435906001600160a01b038216820361014357565b35906001600160a01b038216820361014357565b6001600160401b038111610c195760051b60200190565b919091608081840312610143576040908151916115008361144c565b829461150b836114b9565b84526020808401356001600160401b03811161014357840182601f82011215610143578035611539816114cd565b9361154686519586611482565b818552838086019260061b84010192818411610143578401915b838310611597575050505084015281810135916affffffffffffffffffffff19831683036101435760609283928501520135910152565b86838303126101435784879182516115ae81611416565b6115b7866114b9565b81528286013583820152815201920191611560565b9181601f84011215610143578235916001600160401b038311610143576020838186019501011161014357565b9081518082526020808093019301915f5b828110611618575050505090565b909192938260408261163f60019489516020809160018060a01b0381511684520151910152565b0195019392910161160a565b91908251928382525f5b848110611675575050825f602080949584010152601f8019910116010190565b602081830181015184830182015201611655565b9060209081835260018060a01b0381511682840152818101516001600160401b0360409116818501528082015192606063ffffffff809516818701528084015190856080921660808801526116ee608086015160e060a08a01526101008901906115f9565b9460a081015192601f1996878a82030160c08b01528580865192838152019501915f905b8282106117ae575050505060c001519660e086828503019101528651938483528383019184808760051b8601019901965f945b878610611759575050505050505050505090565b9091929394959697989a998780611798838f898f918a928d8b8b60019b03019052519081511684528581015186850152015191818b820152019061164b565b9c9d9b0199989791909101950193929190611745565b8351805188528089015189890152808a01518a8901528601518b16868801529586019592870192600190910190611712565b6003199060208183011261014357600435916001600160401b03831161014357826040920301126101435760040190565b9181601f84011215610143578235916001600160401b038311610143576020808501948460051b01011161014357565b9060018060a01b0381511691602092602083015160409260606affffffffffffffffffffff19604087015116950151604051958694602086019860e08701917f8714971ff418cd51c9a81343036eeb8fde730ca427825dbc7290de440707acf98b52604088015260c060608801528551809252602061010088019601975f905b8382106119235750505050608085015260a084015260c083015203601f19810183526118ee915082611482565b5190206003549060405190602082019261190160f01b8452602283015260428201526042815261191d8161144c565b51902090565b918094969850828861194d60019496989a8d516020809160018060a01b0381511684520151910152565b0199019201899795939198969492986118c1565b359063ffffffff8216820361014357565b9035601e19823603018112156101435701602081359101916001600160401b03821161014357813603831361014357565b908060209392818452848401375f828201840152601f01601f1916010190565b602081526001600160a01b03806119d9846114b9565b1660208301526119eb602084016114b9565b166040820152604082013560608201526060820135916001600160401b03831680930361014357611a5761010091611a67946080850152611a2e60808201611961565b63ffffffff80911660a0860152611a4760a08301611961565b1660c085015260c0810190611972565b91909260e08082015201916119a3565b90565b903590601e198136030182121561014357018035906001600160401b0382116101435760200191813603831361014357565b906020828203126101435781356001600160401b03811161014357611a6792016114e4565b356001600160a01b03811681036101435790565b3563ffffffff811681036101435790565b15611aed57565b60405162461bcd60e51b815260206004820152600d60248201526c13dc99195c88195e1c1a5c9959609a1b6044820152606490fd5b9291926001600160401b038211610c195760405191611b4b601f8201601f191660200184611482565b829481845281830111610143578281602093845f960137010152565b611b7081611ac1565b6001600160a01b0391903090831603611d1a57611b8f60808201611ad5565b9163ffffffff92834291161115611cdd5760a0820191611bba4285611bb386611ad5565b1611611ae6565b60409060209283820181611bcd82611ac1565b165f525f8552835f20548484013503611ca957611be990611ac1565b165f525f8352815f209081545f198114610987577fc07a2da451988bb878366bc55e873a9a51f48f6f3a14820b4fd0cb1b7f2f652d95611ca495611c9994600161012d94019055855181810190611c448161082a88856119c3565b51902098611c65610d4a60c08701611c5f61011f828a611a6a565b97611a6a565b8281519101208a5f5260018352875f20556002611c8184611ad5565b9252865f20911663ffffffff19825416179055611ad5565b905191829182611689565b0390a2565b835162461bcd60e51b815260048101869052600d60248201526c496e76616c6964206e6f6e636560981b6044820152606490fd5b60405162461bcd60e51b815260206004820152601560248201527413dc195b88191958591b1a5b9948195e1c1a5c9959605a1b6044820152606490fd5b60405162461bcd60e51b815260206004820152601660248201527524b73b30b634b21037b934b3b4b71039b2ba3a3632b960511b6044820152606490fd5b60405190611d6582611467565b606060c0835f81525f60208201525f60408201525f838201528260808201528260a08201520152565b8051156109365760200190565b80518210156109365760209160051b010190565b91908110156109365760051b0190565b6001600160a01b03908116908115611e18575f805160206121d383398151915280546001600160a01b031981168417909155167f8be0079c531659141344cd1fd0a4f28419497f9722a3daafe3b4186f6b6457e05f80a3565b604051631e4fbdf760e01b81525f6004820152602490fd5b9190826040910312610143576020823592013590565b90816020910312610143575180151581036101435790565b15611e6557565b60405162461bcd60e51b815260206004820152600f60248201526e151c985b9cd9995c8819985a5b1959608a1b6044820152606490fd5b92915f5b8451811015611fca576001600160a01b03838116308103611f5b575080611ec78388611d9b565b51511660208080611ed8868b611d9b565b51015160446040955f8751968794859363a9059cbb60e01b85528c16600485015260248401525af1928315611f52575091611f1f91600194935f92611f25575b5050611e5e565b01611ea0565b611f449250803d10611f4b575b611f3c8183611482565b810190611e46565b5f80611f18565b503d611f32565b513d5f823e3d90fd5b81611f668489611d9b565b5151169160208091606482611f7b888d611d9b565b510151945f604097885197889586946323b872dd60e01b865260048601528c16602485015260448401525af1928315611f52575091611fc591600194935f92611f25575050611e5e565b611f1f565b5050509050565b5f805160206121d3833981519152546001600160a01b03163303611ff157565b60405163118cdaa760e01b8152336004820152602490fd5b9091612013611d58565b5060409081519061202382611416565b600182525f5b602080821015612060578451602092916120428261144c565b5f82525f818301525f878301525f6060830152828601015201612029565b5050939291926060926060810151918582015160581c958051966120838861144c565b7441a614f803b6fd780986a42c78ec9c7f77e6ded13c8852602094858901528188015263800000c3968760608201526120bb86611d8e565b526120c585611d8e565b508051956120d287611416565b60018752845f5b81811061216b575050508051966120ef88611431565b87525f8488015280516001600160401b03979080860189811182821017610c195783525f81528282015261212287611d8e565b5261212c86611d8e565b508363ffffffff9301519381519761214389611467565b33895246169088015282421690870152166060850152608084015260a083015260c082015290565b835161217681611431565b5f81525f83820152838582015282828b0101520185906120d9565b60ff7ff0c57e16840df040f15088dc2f81fe391c3923bec73e23a9662efc9c229c6a005460401c16156121c057565b604051631afcd79f60e31b8152600490fdfe9016d09d72d40fdae2fd8ceac6b6234c7706214fd39c1cd1e609a0528c199300a264697066735822122045caf83c60840f72e243e00dfbe0057c1e152816569e8810a77464239b463be664736f6c63430008180033","linkReferences":{}},"methodIdentifiers":{"DOMAIN_SEPARATOR()":"3644e515","INTENT_TYPEHASH()":"b082a274","_messageHash(bytes32,(address,(address,uint256)[],bytes21,uint256))":"4342a40c","_openFor((address,address,uint256,uint64,uint32,uint32,bytes))":"a03f9b24","fillDeadlines(bytes32)":"83d1fce4","gaslessNonces(address)":"809f870f","initialize(address)":"c4d66de8","open((uint32,bytes))":"ba8dd2c0","openFor((address,address,uint256,uint64,uint32,uint32,bytes),bytes,bytes)":"4b86d6ed","orders(bytes32)":"9c3f1e90","owner()":"8da5cb5b","permit2()":"12261ee7","permit2AndOpenFor((address,address,uint256,uint64,uint32,uint32,bytes),bytes,bytes,uint48)":"f0380c78","permitAndOpenFor((address,address,uint256,uint64,uint32,uint32,bytes),bytes,bytes,uint256[],uint8[],bytes32[],bytes32[])":"d52c4609","reclaim(bytes32,(address,(address,uint256)[],bytes21,uint256),bytes)":"af049738","renounceOwnership()":"715018a6","resolve((uint32,bytes))":"f3486df1","resolveFor((address,address,uint256,uint64,uint32,uint32,bytes),bytes)":"b992e92b","transferOwnership(address)":"f2fde38b"},"id":50}