{"abi":[{"type":"constructor","inputs":[],"stateMutability":"nonpayable"},{"type":"function","name":"DOMAIN_SEPARATOR","inputs":[],"outputs":[{"name":"","type":"bytes32","internalType":"bytes32"}],"stateMutability":"view"},{"type":"function","name":"INTENT_TYPEHASH","inputs":[],"outputs":[{"name":"","type":"bytes32","internalType":"bytes32"}],"stateMutability":"view"},{"type":"function","name":"fillDeadlines","inputs":[{"name":"","type":"bytes32","internalType":"bytes32"}],"outputs":[{"name":"","type":"uint32","internalType":"uint32"}],"stateMutability":"view"},{"type":"function","name":"gaslessNonces","inputs":[{"name":"","type":"address","internalType":"address"}],"outputs":[{"name":"","type":"uint256","internalType":"uint256"}],"stateMutability":"view"},{"type":"function","name":"initialize","inputs":[],"outputs":[],"stateMutability":"nonpayable"},{"type":"function","name":"intents","inputs":[{"name":"orderId","type":"bytes32","internalType":"bytes32"}],"outputs":[{"name":"","type":"tuple","internalType":"struct IUntronIntents.Intent","components":[{"name":"refundBeneficiary","type":"address","internalType":"address"},{"name":"inputToken","type":"address","internalType":"address"},{"name":"inputAmount","type":"uint256","internalType":"uint256"},{"name":"to","type":"bytes21","internalType":"bytes21"},{"name":"outputAmount","type":"uint256","internalType":"uint256"}]}],"stateMutability":"view"},{"type":"function","name":"open","inputs":[{"name":"order","type":"tuple","internalType":"struct OnchainCrossChainOrder","components":[{"name":"fillDeadline","type":"uint32","internalType":"uint32"},{"name":"orderData","type":"bytes","internalType":"bytes"}]}],"outputs":[],"stateMutability":"nonpayable"},{"type":"function","name":"openFor","inputs":[{"name":"order","type":"tuple","internalType":"struct GaslessCrossChainOrder","components":[{"name":"originSettler","type":"address","internalType":"address"},{"name":"user","type":"address","internalType":"address"},{"name":"nonce","type":"uint256","internalType":"uint256"},{"name":"originChainId","type":"uint64","internalType":"uint64"},{"name":"openDeadline","type":"uint32","internalType":"uint32"},{"name":"fillDeadline","type":"uint32","internalType":"uint32"},{"name":"orderData","type":"bytes","internalType":"bytes"}]},{"name":"signature","type":"bytes","internalType":"bytes"},{"name":"","type":"bytes","internalType":"bytes"}],"outputs":[],"stateMutability":"nonpayable"},{"type":"function","name":"owner","inputs":[],"outputs":[{"name":"","type":"address","internalType":"address"}],"stateMutability":"view"},{"type":"function","name":"reclaim","inputs":[{"name":"orderId","type":"bytes32","internalType":"bytes32"},{"name":"proof","type":"bytes","internalType":"bytes"}],"outputs":[],"stateMutability":"nonpayable"},{"type":"function","name":"renounceOwnership","inputs":[],"outputs":[],"stateMutability":"nonpayable"},{"type":"function","name":"resolve","inputs":[{"name":"order","type":"tuple","internalType":"struct OnchainCrossChainOrder","components":[{"name":"fillDeadline","type":"uint32","internalType":"uint32"},{"name":"orderData","type":"bytes","internalType":"bytes"}]}],"outputs":[{"name":"","type":"tuple","internalType":"struct ResolvedCrossChainOrder","components":[{"name":"user","type":"address","internalType":"address"},{"name":"originChainId","type":"uint64","internalType":"uint64"},{"name":"openDeadline","type":"uint32","internalType":"uint32"},{"name":"fillDeadline","type":"uint32","internalType":"uint32"},{"name":"maxSpent","type":"tuple[]","internalType":"struct Input[]","components":[{"name":"token","type":"address","internalType":"address"},{"name":"amount","type":"uint256","internalType":"uint256"}]},{"name":"minReceived","type":"tuple[]","internalType":"struct Output[]","components":[{"name":"token","type":"bytes32","internalType":"bytes32"},{"name":"amount","type":"uint256","internalType":"uint256"},{"name":"recipient","type":"bytes32","internalType":"bytes32"},{"name":"chainId","type":"uint32","internalType":"uint32"}]},{"name":"fillInstructions","type":"tuple[]","internalType":"struct FillInstruction[]","components":[{"name":"destinationChainId","type":"uint32","internalType":"uint32"},{"name":"destinationSettler","type":"bytes32","internalType":"bytes32"},{"name":"originData","type":"bytes","internalType":"bytes"}]}]}],"stateMutability":"view"},{"type":"function","name":"resolveFor","inputs":[{"name":"order","type":"tuple","internalType":"struct GaslessCrossChainOrder","components":[{"name":"originSettler","type":"address","internalType":"address"},{"name":"user","type":"address","internalType":"address"},{"name":"nonce","type":"uint256","internalType":"uint256"},{"name":"originChainId","type":"uint64","internalType":"uint64"},{"name":"openDeadline","type":"uint32","internalType":"uint32"},{"name":"fillDeadline","type":"uint32","internalType":"uint32"},{"name":"orderData","type":"bytes","internalType":"bytes"}]},{"name":"","type":"bytes","internalType":"bytes"}],"outputs":[{"name":"","type":"tuple","internalType":"struct ResolvedCrossChainOrder","components":[{"name":"user","type":"address","internalType":"address"},{"name":"originChainId","type":"uint64","internalType":"uint64"},{"name":"openDeadline","type":"uint32","internalType":"uint32"},{"name":"fillDeadline","type":"uint32","internalType":"uint32"},{"name":"maxSpent","type":"tuple[]","internalType":"struct Input[]","components":[{"name":"token","type":"address","internalType":"address"},{"name":"amount","type":"uint256","internalType":"uint256"}]},{"name":"minReceived","type":"tuple[]","internalType":"struct Output[]","components":[{"name":"token","type":"bytes32","internalType":"bytes32"},{"name":"amount","type":"uint256","internalType":"uint256"},{"name":"recipient","type":"bytes32","internalType":"bytes32"},{"name":"chainId","type":"uint32","internalType":"uint32"}]},{"name":"fillInstructions","type":"tuple[]","internalType":"struct FillInstruction[]","components":[{"name":"destinationChainId","type":"uint32","internalType":"uint32"},{"name":"destinationSettler","type":"bytes32","internalType":"bytes32"},{"name":"originData","type":"bytes","internalType":"bytes"}]}]}],"stateMutability":"view"},{"type":"function","name":"transferOwnership","inputs":[{"name":"newOwner","type":"address","internalType":"address"}],"outputs":[],"stateMutability":"nonpayable"},{"type":"event","name":"Initialized","inputs":[{"name":"version","type":"uint64","indexed":false,"internalType":"uint64"}],"anonymous":false},{"type":"event","name":"Open","inputs":[{"name":"orderId","type":"bytes32","indexed":true,"internalType":"bytes32"},{"name":"resolvedOrder","type":"tuple","indexed":false,"internalType":"struct ResolvedCrossChainOrder","components":[{"name":"user","type":"address","internalType":"address"},{"name":"originChainId","type":"uint64","internalType":"uint64"},{"name":"openDeadline","type":"uint32","internalType":"uint32"},{"name":"fillDeadline","type":"uint32","internalType":"uint32"},{"name":"maxSpent","type":"tuple[]","internalType":"struct Input[]","components":[{"name":"token","type":"address","internalType":"address"},{"name":"amount","type":"uint256","internalType":"uint256"}]},{"name":"minReceived","type":"tuple[]","internalType":"struct Output[]","components":[{"name":"token","type":"bytes32","internalType":"bytes32"},{"name":"amount","type":"uint256","internalType":"uint256"},{"name":"recipient","type":"bytes32","internalType":"bytes32"},{"name":"chainId","type":"uint32","internalType":"uint32"}]},{"name":"fillInstructions","type":"tuple[]","internalType":"struct FillInstruction[]","components":[{"name":"destinationChainId","type":"uint32","internalType":"uint32"},{"name":"destinationSettler","type":"bytes32","internalType":"bytes32"},{"name":"originData","type":"bytes","internalType":"bytes"}]}]}],"anonymous":false},{"type":"event","name":"OwnershipTransferred","inputs":[{"name":"previousOwner","type":"address","indexed":true,"internalType":"address"},{"name":"newOwner","type":"address","indexed":true,"internalType":"address"}],"anonymous":false},{"type":"error","name":"InvalidInitialization","inputs":[]},{"type":"error","name":"NotInitializing","inputs":[]},{"type":"error","name":"OwnableInvalidOwner","inputs":[{"name":"owner","type":"address","internalType":"address"}]},{"type":"error","name":"OwnableUnauthorizedAccount","inputs":[{"name":"account","type":"address","internalType":"address"}]}],"bytecode":{"object":"0x608060405234801561000f575f80fd5b5061001861001d565b6100cf565b7ff0c57e16840df040f15088dc2f81fe391c3923bec73e23a9662efc9c229c6a00805468010000000000000000900460ff161561006d5760405163f92ee8a960e01b815260040160405180910390fd5b80546001600160401b03908116146100cc5780546001600160401b0319166001600160401b0390811782556040519081527fc7f505b2f371ae2175ee4913f4499e1f2633a7b5936321eed1cdaeb6115181d29060200160405180910390a15b50565b611ac8806100dc5f395ff3fe608060405234801561000f575f80fd5b50600436106100e5575f3560e01c80639021578a11610088578063b992e92b11610063578063b992e92b146102d2578063ba8dd2c0146102f2578063f2fde38b14610305578063f3486df114610318575f80fd5b80639021578a146101a3578063a1adf50914610298578063b082a274146102ab575f80fd5b8063809f870f116100c3578063809f870f146101225780638129fc1c1461014157806383d1fce4146101495780638da5cb5b14610183575f80fd5b80633644e515146100e95780634b86d6ed14610105578063715018a61461011a575b5f80fd5b6100f260035481565b6040519081526020015b60405180910390f35b6101186101133660046113f9565b61032b565b005b610118610904565b6100f26101303660046114a1565b5f6020819052908152604090205481565b610118610917565b61016e6101573660046114ba565b60026020525f908152604090205463ffffffff1681565b60405163ffffffff90911681526020016100fc565b61018b610a2a565b6040516001600160a01b0390911681526020016100fc565b6102436101b13660046114ba565b6040805160a0810182525f80825260208201819052918101829052606081018290526080810191909152505f90815260016020818152604092839020835160a08101855281546001600160a01b0390811682529382015490931691830191909152600281015492820192909252600382015460581b6001600160581b0319166060820152600490910154608082015290565b6040516100fc919081516001600160a01b03908116825260208084015190911690820152604080830151908201526060808301516001600160581b031916908201526080918201519181019190915260a00190565b6101186102a63660046114d1565b610a58565b6100f27f374b960912bd8210ec5c11758dca71bd6948f3eda9d3591245c6e34f275874e781565b6102e56102e0366004611518565b610c12565b6040516100fc91906116c5565b610118610300366004611768565b610c54565b6101186103133660046114a1565b610eb1565b6102e5610326366004611768565b610eee565b3061033960208701876114a1565b6001600160a01b03161461038d5760405162461bcd60e51b815260206004820152601660248201527524b73b30b634b21037b934b3b4b71039b2ba3a3632b960511b60448201526064015b60405180910390fd5b4261039e60a08701608088016117b1565b63ffffffff16116103e95760405162461bcd60e51b815260206004820152601560248201527413dc195b88191958591b1a5b9948195e1c1a5c9959605a1b6044820152606401610384565b426103fa60c0870160a088016117b1565b63ffffffff161161043d5760405162461bcd60e51b815260206004820152600d60248201526c13dc99195c88195e1c1a5c9959609a1b6044820152606401610384565b5f8061044f60408801602089016114a1565b6001600160a01b03166001600160a01b031681526020019081526020015f20548560400135146104b15760405162461bcd60e51b815260206004820152600d60248201526c496e76616c6964206e6f6e636560981b6044820152606401610384565b5f806104c360408801602089016114a1565b6001600160a01b0316815260208101919091526040015f9081208054916104e9836117ca565b91905055505f856040516020016105009190611857565b60408051601f19818403018152919052805160209091012090505f61052860c088018861190f565b8101906105359190611951565b90505f7f374b960912bd8210ec5c11758dca71bd6948f3eda9d3591245c6e34f275874e7825f01518360200151846040015185606001518660800151886040516020016105c997969594939291909687526001600160a01b03958616602088015293909416604086015260608501919091526001600160581b031916608084015260a083019190915260c082015260e00190565b6040516020818303038152906040528051906020012090505f6003548260405160200161060d92919061190160f01b81526002810192909252602282015260420190565b60408051601f19818403018152919052805160209091012090505f80806106368a8c018c6119ee565b9250925092505f6001858585856040515f8152602001604052604051610678949392919093845260ff9290921660208401526040830152606082015260800190565b6020604051602081039080840390855afa158015610698573d5f803e3d5ffd5b505060408051601f19015192506106b591508e0160208f016114a1565b6001600160a01b0316816001600160a01b0316146107095760405162461bcd60e51b8152602060048201526011602482015270496e76616c6964207369676e617475726560781b6044820152606401610384565b86602001516001600160a01b03166323b872dd8e602001602081019061072f91906114a1565b6040808b015190516001600160e01b031960e085901b1681526001600160a01b03909216600483015230602483015260448201526064016020604051808303815f875af1158015610782573d5f803e3d5ffd5b505050506040513d601f19601f820116820180604052508101906107a69190611a25565b6107e75760405162461bcd60e51b8152602060048201526012602482015271496e73756666696369656e742066756e647360701b6044820152606401610384565b5f888152600160208181526040928390208a5181546001600160a01b03199081166001600160a01b03928316178355928c01519382018054909316931692909217905590880151600282015560608801516003820180546001600160a81b03191660589290921c919091179055608088015160049091015561086f60c08e0160a08f016117b1565b60025f8a81526020019081526020015f205f6101000a81548163ffffffff021916908363ffffffff1602179055505f6108ba888f60a00160208101906108b591906117b1565b610f2b565b9050887fc07a2da451988bb878366bc55e873a9a51f48f6f3a14820b4fd0cb1b7f2f652d826040516108ec91906116c5565b60405180910390a25050505050505050505050505050565b61090c611172565b6109155f6111a4565b565b7ff0c57e16840df040f15088dc2f81fe391c3923bec73e23a9662efc9c229c6a008054600160401b810460ff1615906001600160401b03165f8115801561095b5750825b90505f826001600160401b031660011480156109765750303b155b905081158015610984575080155b156109a25760405163f92ee8a960e01b815260040160405180910390fd5b845467ffffffffffffffff1916600117855583156109cc57845460ff60401b1916600160401b1785555b6109d533611214565b6109dd611225565b8315610a2357845460ff60401b19168555604051600181527fc7f505b2f371ae2175ee4913f4499e1f2633a7b5936321eed1cdaeb6115181d29060200160405180910390a15b5050505050565b7f9016d09d72d40fdae2fd8ceac6b6234c7706214fd39c1cd1e609a0528c199300546001600160a01b031690565b5f838152600160208181526040808420815160a08101835281546001600160a01b039081168252948201549094168484015260028082015485840152600382015460581b6001600160581b031916606086015260049091015460808501528785529091529091205463ffffffff1642811115610b1457610ad98285856112d1565b610b145760405162461bcd60e51b815260206004820152600c60248201526b125b9d985b1a5908199a5b1b60a21b6044820152606401610384565b81602001516001600160a01b031663a9059cbb428363ffffffff1611610b3b578351610b3d565b335b60408086015190516001600160e01b031960e085901b1681526001600160a01b03909216600483015260248201526044016020604051808303815f875af1158015610b8a573d5f803e3d5ffd5b505050506040513d601f19601f82011682018060405250810190610bae9190611a25565b5050505f928352505060016020818152604080842080546001600160a01b03199081168255938101805490941690935560028084018590556003840180546001600160a81b031916905560049093018490559190529020805463ffffffff19169055565b610c1a611348565b5f610c2860c086018661190f565b810190610c359190611951565b9050610c4b816108b560c0880160a089016117b1565b95945050505050565b42610c6260208301836117b1565b63ffffffff1611610ca55760405162461bcd60e51b815260206004820152600d60248201526c13dc99195c88195e1c1a5c9959609a1b6044820152606401610384565b5f81604051602001610cb79190611a44565b6040516020818303038152906040528051906020012090505f828060200190610ce0919061190f565b810190610ced9190611951565b602081015160408083015190516323b872dd60e01b815233600482015230602482015260448101919091529192506001600160a01b0316906323b872dd906064016020604051808303815f875af1158015610d4a573d5f803e3d5ffd5b505050506040513d601f19601f82011682018060405250810190610d6e9190611a25565b610daf5760405162461bcd60e51b8152602060048201526012602482015271496e73756666696369656e742066756e647360701b6044820152606401610384565b5f610dc1826108b560208701876117b1565b5f84815260016020818152604092839020865181546001600160a01b03199081166001600160a01b03928316178355888401519483018054909116949091169390931790925591850151600282015560608501516003820180546001600160a81b03191660589290921c9190911790556080850151600490910155909150610e4b908501856117b1565b5f8481526002602052604090819020805463ffffffff191663ffffffff93909316929092179091555183907fc07a2da451988bb878366bc55e873a9a51f48f6f3a14820b4fd0cb1b7f2f652d90610ea39084906116c5565b60405180910390a250505050565b610eb9611172565b6001600160a01b038116610ee257604051631e4fbdf760e01b81525f6004820152602401610384565b610eeb816111a4565b50565b610ef6611348565b5f610f04602084018461190f565b810190610f119190611951565b9050610f24816108b560208601866117b1565b9392505050565b610f33611348565b6040805160018082528183019092525f91816020015b604080518082019091525f8082526020820152815260200190600190039081610f49579050509050604051806040016040528085602001516001600160a01b031681526020018560400151815250815f81518110610fa957610fa9611a7e565b60209081029190910101526040805160018082528183019092525f91816020015b604080516080810182525f8082526020808301829052928201819052606082015282525f19909201910181610fca57905050905060405180608001604052807441a614f803b6fd780986a42c78ec9c7f77e6ded13c60581b6affffffffffffffffffffff191681526020018660800151815260200186606001516affffffffffffffffffffff1916815260200163800000c363ffffffff16815250815f8151811061107757611077611a7e565b60209081029190910101526040805160018082528183019092525f91816020015b60408051606080820183525f8083526020830152918101919091528152602001906001900390816110985750506040805160608101825263800000c381525f6020808301829052835190810184528181529282019290925282519293509183919061110557611105611a7e565b60200260200101819052506040518060e00160405280336001600160a01b031681526020016111314690565b6001600160401b031681526020014263ffffffff1681526020018663ffffffff16815260200184815260200183815260200182815250935050505092915050565b3361117b610a2a565b6001600160a01b0316146109155760405163118cdaa760e01b8152336004820152602401610384565b7f9016d09d72d40fdae2fd8ceac6b6234c7706214fd39c1cd1e609a0528c19930080546001600160a01b031981166001600160a01b03848116918217845560405192169182907f8be0079c531659141344cd1fd0a4f28419497f9722a3daafe3b4186f6b6457e0905f90a3505050565b61121c6112f7565b610eeb81611340565b61122d6112f7565b604080517f8b73c3c69bb8fe3d512ecc4cf759cc79239f7b179b0ffacaa9a75d522b39400f60208201527ff8e1a36a5e6aeef746a16251b6283ba191edaef0070c59bd64a645999629de17918101919091527fc89efdaa54c0f20c7adf612882df0950f5a951637e0307cdcb4c672f298b8bc660608201524660808201523060a082015260c00160408051601f198184030181529190528051602090910120600355565b5f6112da610a2a565b6001600160a01b0316336001600160a01b03161490509392505050565b7ff0c57e16840df040f15088dc2f81fe391c3923bec73e23a9662efc9c229c6a0054600160401b900460ff1661091557604051631afcd79f60e31b815260040160405180910390fd5b610eb96112f7565b6040518060e001604052805f6001600160a01b031681526020015f6001600160401b031681526020015f63ffffffff1681526020015f63ffffffff1681526020016060815260200160608152602001606081525090565b5f60e082840312156113af575f80fd5b50919050565b5f8083601f8401126113c5575f80fd5b5081356001600160401b038111156113db575f80fd5b6020830191508360208285010111156113f2575f80fd5b9250929050565b5f805f805f6060868803121561140d575f80fd5b85356001600160401b0380821115611423575f80fd5b61142f89838a0161139f565b96506020880135915080821115611444575f80fd5b61145089838a016113b5565b90965094506040880135915080821115611468575f80fd5b50611475888289016113b5565b969995985093965092949392505050565b80356001600160a01b038116811461149c575f80fd5b919050565b5f602082840312156114b1575f80fd5b610f2482611486565b5f602082840312156114ca575f80fd5b5035919050565b5f805f604084860312156114e3575f80fd5b8335925060208401356001600160401b038111156114ff575f80fd5b61150b868287016113b5565b9497909650939450505050565b5f805f6040848603121561152a575f80fd5b83356001600160401b0380821115611540575f80fd5b61154c8783880161139f565b94506020860135915080821115611561575f80fd5b5061150b868287016113b5565b5f815180845260208085019450602084015f5b838110156115b157815180516001600160a01b031688528301518388015260409096019590820190600101611581565b509495945050505050565b5f815180845260208085019450602084015f5b838110156115b15781518051885283810151848901526040808201519089015260609081015163ffffffff1690880152608090960195908201906001016115cf565b5f82825180855260208086019550808260051b8401018186015f5b848110156116b857601f1986840381018a528251805163ffffffff168552858101518686015260409081015160609186018290528051918601829052905f905b8082101561168a57828201880151878301608001529087019061166c565b5f8782016080908101919091529c88019c601f9091019093169095019091019350509083019060010161162c565b5090979650505050505050565b602080825282516001600160a01b0316828201528201516001600160401b031660408083019190915282015163ffffffff811660608301525f9050606083015163ffffffff8116608084015250608083015160e060a084015261172c61010084018261156e565b905060a0840151601f19808584030160c086015261174a83836115bc565b925060c08601519150808584030160e086015250610c4b8282611611565b5f60208284031215611778575f80fd5b81356001600160401b0381111561178d575f80fd5b820160408185031215610f24575f80fd5b803563ffffffff8116811461149c575f80fd5b5f602082840312156117c1575f80fd5b610f248261179e565b5f600182016117e757634e487b7160e01b5f52601160045260245ffd5b5060010190565b5f808335601e19843603018112611803575f80fd5b83016020810192503590506001600160401b03811115611821575f80fd5b8036038213156113f2575f80fd5b81835281816020850137505f828201602090810191909152601f909101601f19169091010190565b602081525f6001600160a01b038061186e85611486565b1660208401528061188160208601611486565b166040840152506040830135606083015260608301356001600160401b03811681146118ab575f80fd5b6001600160401b0381166080840152506118c76080840161179e565b63ffffffff811660a0840152506118e060a0840161179e565b63ffffffff811660c0840152506118fa60c08401846117ee565b60e080850152610c4b6101008501828461182f565b5f808335601e19843603018112611924575f80fd5b8301803591506001600160401b0382111561193d575f80fd5b6020019150368190038213156113f2575f80fd5b5f60a08284031215611961575f80fd5b60405160a081018181106001600160401b038211171561198f57634e487b7160e01b5f52604160045260245ffd5b60405261199b83611486565b81526119a960208401611486565b60208201526040830135604082015260608301356affffffffffffffffffffff19811681146119d6575f80fd5b60608201526080928301359281019290925250919050565b5f805f60608486031215611a00575f80fd5b833560ff81168114611a10575f80fd5b95602085013595506040909401359392505050565b5f60208284031215611a35575f80fd5b81518015158114610f24575f80fd5b6020815263ffffffff611a568361179e565b1660208201525f611a6a60208401846117ee565b604080850152610c4b60608501828461182f565b634e487b7160e01b5f52603260045260245ffdfea2646970667358221220b378245bc15d045d3cef3f1e250ef540eb2a71ca233cbece483f6dae6f132def64736f6c63430008180033","linkReferences":{}},"methodIdentifiers":{"DOMAIN_SEPARATOR()":"3644e515","INTENT_TYPEHASH()":"b082a274","fillDeadlines(bytes32)":"83d1fce4","gaslessNonces(address)":"809f870f","initialize()":"8129fc1c","intents(bytes32)":"9021578a","open((uint32,bytes))":"ba8dd2c0","openFor((address,address,uint256,uint64,uint32,uint32,bytes),bytes,bytes)":"4b86d6ed","owner()":"8da5cb5b","reclaim(bytes32,bytes)":"a1adf509","renounceOwnership()":"715018a6","resolve((uint32,bytes))":"f3486df1","resolveFor((address,address,uint256,uint64,uint32,uint32,bytes),bytes)":"b992e92b","transferOwnership(address)":"f2fde38b"},"id":5}